{
  "_format": "hh-sol-artifact-1",
  "contractName": "AssetMarketPlace",
  "sourceName": "contracts/AssetMarketPlace.sol",
  "abi": [
    {
      "inputs": [
        {
          "internalType": "address",
          "name": "_nft",
          "type": "address"
        },
        {
          "internalType": "address",
          "name": "_coin",
          "type": "address"
        }
      ],
      "stateMutability": "nonpayable",
      "type": "constructor"
    },
    {
      "anonymous": false,
      "inputs": [
        {
          "indexed": true,
          "internalType": "uint128",
          "name": "nftId",
          "type": "uint128"
        },
        {
          "indexed": true,
          "internalType": "address",
          "name": "confirmer",
          "type": "address"
        },
        {
          "indexed": false,
          "internalType": "bool",
          "name": "isPayer",
          "type": "bool"
        }
      ],
      "name": "ItemDelivered",
      "type": "event"
    },
    {
      "anonymous": false,
      "inputs": [
        {
          "indexed": true,
          "internalType": "uint128",
          "name": "nftId",
          "type": "uint128"
        },
        {
          "indexed": true,
          "internalType": "address",
          "name": "lister",
          "type": "address"
        },
        {
          "indexed": false,
          "internalType": "uint256",
          "name": "price",
          "type": "uint256"
        }
      ],
      "name": "Listed",
      "type": "event"
    },
    {
      "anonymous": false,
      "inputs": [
        {
          "indexed": true,
          "internalType": "uint128",
          "name": "nftId",
          "type": "uint128"
        },
        {
          "indexed": true,
          "internalType": "address",
          "name": "payer",
          "type": "address"
        },
        {
          "indexed": false,
          "internalType": "uint256",
          "name": "price",
          "type": "uint256"
        }
      ],
      "name": "PaymentReceived",
      "type": "event"
    },
    {
      "anonymous": false,
      "inputs": [
        {
          "indexed": true,
          "internalType": "uint128",
          "name": "nftId",
          "type": "uint128"
        },
        {
          "indexed": true,
          "internalType": "address",
          "name": "seller",
          "type": "address"
        },
        {
          "indexed": false,
          "internalType": "uint256",
          "name": "amount",
          "type": "uint256"
        }
      ],
      "name": "PaymentWithdrawn",
      "type": "event"
    },
    {
      "inputs": [
        {
          "internalType": "uint256",
          "name": "",
          "type": "uint256"
        }
      ],
      "name": "assetIds",
      "outputs": [
        {
          "internalType": "uint128",
          "name": "",
          "type": "uint128"
        }
      ],
      "stateMutability": "view",
      "type": "function"
    },
    {
      "inputs": [
        {
          "internalType": "uint128",
          "name": "",
          "type": "uint128"
        }
      ],
      "name": "assets",
      "outputs": [
        {
          "internalType": "address",
          "name": "owner",
          "type": "address"
        },
        {
          "internalType": "uint256",
          "name": "price",
          "type": "uint256"
        },
        {
          "internalType": "bool",
          "name": "payedFor",
          "type": "bool"
        },
        {
          "internalType": "bool",
          "name": "booked",
          "type": "bool"
        },
        {
          "internalType": "address",
          "name": "payer",
          "type": "address"
        },
        {
          "internalType": "bool",
          "name": "payerChecked",
          "type": "bool"
        },
        {
          "internalType": "bool",
          "name": "buyerChecked",
          "type": "bool"
        }
      ],
      "stateMutability": "view",
      "type": "function"
    },
    {
      "inputs": [],
      "name": "coin",
      "outputs": [
        {
          "internalType": "contract ERC20",
          "name": "",
          "type": "address"
        }
      ],
      "stateMutability": "view",
      "type": "function"
    },
    {
      "inputs": [
        {
          "internalType": "uint256",
          "name": "start",
          "type": "uint256"
        },
        {
          "internalType": "uint256",
          "name": "end",
          "type": "uint256"
        }
      ],
      "name": "get_listings",
      "outputs": [
        {
          "internalType": "uint256[]",
          "name": "",
          "type": "uint256[]"
        }
      ],
      "stateMutability": "view",
      "type": "function"
    },
    {
      "inputs": [
        {
          "internalType": "uint128",
          "name": "nftId",
          "type": "uint128"
        }
      ],
      "name": "get_payment",
      "outputs": [],
      "stateMutability": "nonpayable",
      "type": "function"
    },
    {
      "inputs": [
        {
          "internalType": "uint128",
          "name": "nftId",
          "type": "uint128"
        }
      ],
      "name": "get_stock_data",
      "outputs": [
        {
          "components": [
            {
              "internalType": "address",
              "name": "owner",
              "type": "address"
            },
            {
              "internalType": "uint256",
              "name": "price",
              "type": "uint256"
            },
            {
              "internalType": "bool",
              "name": "payedFor",
              "type": "bool"
            },
            {
              "internalType": "bool",
              "name": "booked",
              "type": "bool"
            },
            {
              "internalType": "address",
              "name": "payer",
              "type": "address"
            },
            {
              "internalType": "bool",
              "name": "payerChecked",
              "type": "bool"
            },
            {
              "internalType": "bool",
              "name": "buyerChecked",
              "type": "bool"
            }
          ],
          "internalType": "struct AssetMarketPlace.AssetData",
          "name": "",
          "type": "tuple"
        }
      ],
      "stateMutability": "view",
      "type": "function"
    },
    {
      "inputs": [
        {
          "internalType": "uint128",
          "name": "limit",
          "type": "uint128"
        },
        {
          "internalType": "address",
          "name": "user",
          "type": "address"
        }
      ],
      "name": "get_user_listing",
      "outputs": [
        {
          "internalType": "uint128[]",
          "name": "",
          "type": "uint128[]"
        }
      ],
      "stateMutability": "view",
      "type": "function"
    },
    {
      "inputs": [
        {
          "internalType": "uint128",
          "name": "limit",
          "type": "uint128"
        },
        {
          "internalType": "address",
          "name": "user",
          "type": "address"
        }
      ],
      "name": "get_user_stocks",
      "outputs": [
        {
          "internalType": "uint128[]",
          "name": "",
          "type": "uint128[]"
        }
      ],
      "stateMutability": "view",
      "type": "function"
    },
    {
      "inputs": [
        {
          "internalType": "uint128",
          "name": "nftId",
          "type": "uint128"
        },
        {
          "internalType": "uint256",
          "name": "price",
          "type": "uint256"
        },
        {
          "internalType": "address",
          "name": "lister",
          "type": "address"
        }
      ],
      "name": "list_for_sale",
      "outputs": [
        {
          "internalType": "bool",
          "name": "",
          "type": "bool"
        }
      ],
      "stateMutability": "nonpayable",
      "type": "function"
    },
    {
      "inputs": [
        {
          "internalType": "uint128",
          "name": "nftId",
          "type": "uint128"
        },
        {
          "internalType": "bool",
          "name": "isPayer",
          "type": "bool"
        }
      ],
      "name": "mark_as_delivered",
      "outputs": [],
      "stateMutability": "nonpayable",
      "type": "function"
    },
    {
      "inputs": [],
      "name": "name",
      "outputs": [
        {
          "internalType": "string",
          "name": "",
          "type": "string"
        }
      ],
      "stateMutability": "view",
      "type": "function"
    },
    {
      "inputs": [],
      "name": "nft",
      "outputs": [
        {
          "internalType": "contract AssetNFT",
          "name": "",
          "type": "address"
        }
      ],
      "stateMutability": "view",
      "type": "function"
    },
    {
      "inputs": [],
      "name": "owner",
      "outputs": [
        {
          "internalType": "address",
          "name": "",
          "type": "address"
        }
      ],
      "stateMutability": "view",
      "type": "function"
    },
    {
      "inputs": [
        {
          "internalType": "uint128",
          "name": "nftId",
          "type": "uint128"
        }
      ],
      "name": "payForStock",
      "outputs": [
        {
          "internalType": "bool",
          "name": "",
          "type": "bool"
        }
      ],
      "stateMutability": "nonpayable",
      "type": "function"
    },
    {
      "stateMutability": "payable",
      "type": "receive"
    }
  ],
  "bytecode": "0x60a06040526040518060400160405280600881526020017f43726f7053776170000000000000000000000000000000000000000000000000815250600090816100489190610384565b5034801561005557600080fd5b50604051612ef1380380612ef1833981810160405281019061007791906104b9565b3373ffffffffffffffffffffffffffffffffffffffff1660808173ffffffffffffffffffffffffffffffffffffffff168152505081600160006101000a81548173ffffffffffffffffffffffffffffffffffffffff021916908373ffffffffffffffffffffffffffffffffffffffff16021790555080600260006101000a81548173ffffffffffffffffffffffffffffffffffffffff021916908373ffffffffffffffffffffffffffffffffffffffff16021790555050506104f9565b600081519050919050565b7f4e487b7100000000000000000000000000000000000000000000000000000000600052604160045260246000fd5b7f4e487b7100000000000000000000000000000000000000000000000000000000600052602260045260246000fd5b600060028204905060018216806101b557607f821691505b6020821081036101c8576101c761016e565b5b50919050565b60008190508160005260206000209050919050565b60006020601f8301049050919050565b600082821b905092915050565b6000600883026102307fffffffffffffffffffffffffffffffffffffffffffffffffffffffffffffffff826101f3565b61023a86836101f3565b95508019841693508086168417925050509392505050565b6000819050919050565b6000819050919050565b600061028161027c61027784610252565b61025c565b610252565b9050919050565b6000819050919050565b61029b83610266565b6102af6102a782610288565b848454610200565b825550505050565b600090565b6102c46102b7565b6102cf818484610292565b505050565b5b818110156102f3576102e86000826102bc565b6001810190506102d5565b5050565b601f82111561033857610309816101ce565b610312846101e3565b81016020851015610321578190505b61033561032d856101e3565b8301826102d4565b50505b505050565b600082821c905092915050565b600061035b6000198460080261033d565b1980831691505092915050565b6000610374838361034a565b9150826002028217905092915050565b61038d82610134565b67ffffffffffffffff8111156103a6576103a561013f565b5b6103b0825461019d565b6103bb8282856102f7565b600060209050601f8311600181146103ee57600084156103dc578287015190505b6103e68582610368565b86555061044e565b601f1984166103fc866101ce565b60005b82811015610424578489015182556001820191506020850194506020810190506103ff565b86831015610441578489015161043d601f89168261034a565b8355505b6001600288020188555050505b505050505050565b600080fd5b600073ffffffffffffffffffffffffffffffffffffffff82169050919050565b60006104868261045b565b9050919050565b6104968161047b565b81146104a157600080fd5b50565b6000815190506104b38161048d565b92915050565b600080604083850312156104d0576104cf610456565b5b60006104de858286016104a4565b92505060206104ef858286016104a4565b9150509250929050565b6080516129dd610514600039600061129101526129dd6000f3fe6080604052600436106100e15760003560e01c8063613c2c6f1161007f5780638da5cb5b116100595780638da5cb5b146102f15780639821d2b11461031c578063baca246d14610359578063d2f0b0c514610396576100e8565b8063613c2c6f1461024e57806371903fbb1461028b57806387541ed6146102b4576100e8565b8063277b4b3b116100bb578063277b4b3b1461018057806329f72ae2146101bd57806347ccca02146101e65780634a4e621b14610211576100e8565b806306fdde03146100ed57806311df99951461011857806318e4859914610143576100e8565b366100e857005b600080fd5b3480156100f957600080fd5b506101026103d9565b60405161010f9190611c0e565b60405180910390f35b34801561012457600080fd5b5061012d610467565b60405161013a9190611caf565b60405180910390f35b34801561014f57600080fd5b5061016a60048036038101906101659190611d55565b61048d565b6040516101779190611e53565b60405180910390f35b34801561018c57600080fd5b506101a760048036038101906101a29190611eab565b6106f2565b6040516101b49190611fa9565b60405180910390f35b3480156101c957600080fd5b506101e460048036038101906101df9190611fcb565b610801565b005b3480156101f257600080fd5b506101fb610b2d565b6040516102089190612019565b60405180910390f35b34801561021d57600080fd5b5061023860048036038101906102339190611fcb565b610b53565b60405161024591906120ec565b60405180910390f35b34801561025a57600080fd5b5061027560048036038101906102709190611fcb565b610ccc565b6040516102829190612116565b60405180910390f35b34801561029757600080fd5b506102b260048036038101906102ad919061215d565b610fed565b005b3480156102c057600080fd5b506102db60048036038101906102d6919061219d565b611249565b6040516102e891906121d9565b60405180910390f35b3480156102fd57600080fd5b5061030661128f565b6040516103139190612203565b60405180910390f35b34801561032857600080fd5b50610343600480360381019061033e919061221e565b6112b3565b6040516103509190612116565b60405180910390f35b34801561036557600080fd5b50610380600480360381019061037b9190611d55565b6116e5565b60405161038d9190611e53565b60405180910390f35b3480156103a257600080fd5b506103bd60048036038101906103b89190611fcb565b611a57565b6040516103d09796959493929190612280565b60405180910390f35b600080546103e69061231e565b80601f01602080910402602001604051908101604052809291908181526020018280546104129061231e565b801561045f5780601f106104345761010080835404028352916020019161045f565b820191906000526020600020905b81548152906001019060200180831161044257829003601f168201915b505050505081565b600260009054906101000a900473ffffffffffffffffffffffffffffffffffffffff1681565b60606000836fffffffffffffffffffffffffffffffff1667ffffffffffffffff8111156104bd576104bc61234f565b5b6040519080825280602002602001820160405280156104eb5781602001602082028036833780820191505090505b5090506000805b600480549050816fffffffffffffffffffffffffffffffff1610156106e657856fffffffffffffffffffffffffffffffff16816fffffffffffffffffffffffffffffffff1610156106e6576000600360006004846fffffffffffffffffffffffffffffffff16815481106105695761056861237e565b5b90600052602060002090600291828204019190066010029054906101000a90046fffffffffffffffffffffffffffffffff166fffffffffffffffffffffffffffffffff166fffffffffffffffffffffffffffffffff16815260200190815260200160002090508573ffffffffffffffffffffffffffffffffffffffff168160000160009054906101000a900473ffffffffffffffffffffffffffffffffffffffff1673ffffffffffffffffffffffffffffffffffffffff16036106d2576004826fffffffffffffffffffffffffffffffff168154811061064c5761064b61237e565b5b90600052602060002090600291828204019190066010029054906101000a90046fffffffffffffffffffffffffffffffff168484815181106106915761069061237e565b5b60200260200101906fffffffffffffffffffffffffffffffff1690816fffffffffffffffffffffffffffffffff168152505082806106ce906123dc565b9350505b5080806106de90612424565b9150506104f2565b50819250505092915050565b606060008383610702919061245c565b67ffffffffffffffff81111561071b5761071a61234f565b5b6040519080825280602002602001820160405280156107495781602001602082028036833780820191505090505b50905060008490505b6004805490508110156107f657838110156107f6576004818154811061077b5761077a61237e565b5b90600052602060002090600291828204019190066010029054906101000a90046fffffffffffffffffffffffffffffffff166fffffffffffffffffffffffffffffffff168286836107cc919061245c565b815181106107dd576107dc61237e565b5b6020026020010181815250508080600101915050610752565b508091505092915050565b600060036000836fffffffffffffffffffffffffffffffff166fffffffffffffffffffffffffffffffff16815260200190815260200160002090508060020160009054906101000a900460ff1661088d576040517f08c379a0000000000000000000000000000000000000000000000000000000008152600401610884906124dc565b60405180910390fd5b3373ffffffffffffffffffffffffffffffffffffffff168160000160009054906101000a900473ffffffffffffffffffffffffffffffffffffffff1673ffffffffffffffffffffffffffffffffffffffff161461091f576040517f08c379a000000000000000000000000000000000000000000000000000000000815260040161091690612548565b60405180910390fd5b8060020160169054906101000a900460ff16610970576040517f08c379a000000000000000000000000000000000000000000000000000000000815260040161096790612548565b60405180910390fd5b8060020160179054906101000a900460ff166109c1576040517f08c379a00000000000000000000000000000000000000000000000000000000081526004016109b890612548565b60405180910390fd5b6000600a600983600101546109d69190612568565b6109e091906125d9565b90506000600260009054906101000a900473ffffffffffffffffffffffffffffffffffffffff1673ffffffffffffffffffffffffffffffffffffffff1663a9059cbb33846040518363ffffffff1660e01b8152600401610a4192919061263b565b6020604051808303816000875af1158015610a60573d6000803e3d6000fd5b505050506040513d601f19601f82011682018060405250810190610a849190612679565b905080610ac6576040517f08c379a0000000000000000000000000000000000000000000000000000000008152600401610abd906126f2565b60405180910390fd5b3373ffffffffffffffffffffffffffffffffffffffff16846fffffffffffffffffffffffffffffffff167f93e7dd2a1d95817daaebba1c9458b56d203d8a7bc5ed4c493b2c69acc9f0789484604051610b1f9190612712565b60405180910390a350505050565b600160009054906101000a900473ffffffffffffffffffffffffffffffffffffffff1681565b610b5b611b0d565b600060036000846fffffffffffffffffffffffffffffffff166fffffffffffffffffffffffffffffffff1681526020019081526020016000209050806040518060e00160405290816000820160009054906101000a900473ffffffffffffffffffffffffffffffffffffffff1673ffffffffffffffffffffffffffffffffffffffff1673ffffffffffffffffffffffffffffffffffffffff168152602001600182015481526020016002820160009054906101000a900460ff161515151581526020016002820160019054906101000a900460ff161515151581526020016002820160029054906101000a900473ffffffffffffffffffffffffffffffffffffffff1673ffffffffffffffffffffffffffffffffffffffff1673ffffffffffffffffffffffffffffffffffffffff1681526020016002820160169054906101000a900460ff161515151581526020016002820160179054906101000a900460ff161515151581525050915050919050565b60008060036000846fffffffffffffffffffffffffffffffff166fffffffffffffffffffffffffffffffff16815260200190815260200160002090506000816001015411610d4f576040517f08c379a0000000000000000000000000000000000000000000000000000000008152600401610d4690612779565b60405180910390fd5b8060010154600260009054906101000a900473ffffffffffffffffffffffffffffffffffffffff1673ffffffffffffffffffffffffffffffffffffffff1663dd62ed3e33306040518363ffffffff1660e01b8152600401610db1929190612799565b602060405180830381865afa158015610dce573d6000803e3d6000fd5b505050506040513d601f19601f82011682018060405250810190610df291906127d7565b1015610e33576040517f08c379a0000000000000000000000000000000000000000000000000000000008152600401610e2a90612850565b60405180910390fd5b6000600260009054906101000a900473ffffffffffffffffffffffffffffffffffffffff1673ffffffffffffffffffffffffffffffffffffffff166323b872dd333085600101546040518463ffffffff1660e01b8152600401610e9893929190612870565b6020604051808303816000875af1158015610eb7573d6000803e3d6000fd5b505050506040513d601f19601f82011682018060405250810190610edb9190612679565b905080610f1d576040517f08c379a0000000000000000000000000000000000000000000000000000000008152600401610f14906126f2565b60405180910390fd5b60018260020160006101000a81548160ff021916908315150217905550338260020160026101000a81548173ffffffffffffffffffffffffffffffffffffffff021916908373ffffffffffffffffffffffffffffffffffffffff1602179055503373ffffffffffffffffffffffffffffffffffffffff16846fffffffffffffffffffffffffffffffff167fbcf70ff455098b8c15f8fbc2d61f9cad1360c22e41c02a4eb57332a6621f914b8460010154604051610fda91906128a7565b60405180910390a3600192505050919050565b600060036000846fffffffffffffffffffffffffffffffff166fffffffffffffffffffffffffffffffff16815260200190815260200160002090508060020160009054906101000a900460ff16611079576040517f08c379a0000000000000000000000000000000000000000000000000000000008152600401611070906124dc565b60405180910390fd5b8115611133573373ffffffffffffffffffffffffffffffffffffffff168160020160029054906101000a900473ffffffffffffffffffffffffffffffffffffffff1673ffffffffffffffffffffffffffffffffffffffff1614611111576040517f08c379a000000000000000000000000000000000000000000000000000000000815260040161110890612548565b60405180910390fd5b60018160020160166101000a81548160ff0219169083151502179055506111e3565b3373ffffffffffffffffffffffffffffffffffffffff168160000160009054906101000a900473ffffffffffffffffffffffffffffffffffffffff1673ffffffffffffffffffffffffffffffffffffffff16146111c5576040517f08c379a00000000000000000000000000000000000000000000000000000000081526004016111bc90612548565b60405180910390fd5b60018160020160176101000a81548160ff0219169083151502179055505b3373ffffffffffffffffffffffffffffffffffffffff16836fffffffffffffffffffffffffffffffff167fbcaa63eb2e22c5280fb475efca4d82d5ba62fc379dcf1f2e0ad3e0fe314867f78460405161123c9190612116565b60405180910390a3505050565b6004818154811061125957600080fd5b9060005260206000209060029182820401919006601002915054906101000a90046fffffffffffffffffffffffffffffffff1681565b7f000000000000000000000000000000000000000000000000000000000000000081565b60008173ffffffffffffffffffffffffffffffffffffffff16600160009054906101000a900473ffffffffffffffffffffffffffffffffffffffff1673ffffffffffffffffffffffffffffffffffffffff16636352211e866040518263ffffffff1660e01b81526004016113279190612712565b602060405180830381865afa158015611344573d6000803e3d6000fd5b505050506040513d601f19601f8201168201806040525081019061136891906128d7565b73ffffffffffffffffffffffffffffffffffffffff16146113be576040517f08c379a00000000000000000000000000000000000000000000000000000000081526004016113b590612950565b60405180910390fd5b600160009054906101000a900473ffffffffffffffffffffffffffffffffffffffff1673ffffffffffffffffffffffffffffffffffffffff166323b872dd8330876040518463ffffffff1660e01b815260040161141d93929190612970565b600060405180830381600087803b15801561143757600080fd5b505af115801561144b573d6000803e3d6000fd5b5050505060006040518060e001604052808473ffffffffffffffffffffffffffffffffffffffff168152602001858152602001600015158152602001600015158152602001600073ffffffffffffffffffffffffffffffffffffffff1681526020016000151581526020016000151581525090508060036000876fffffffffffffffffffffffffffffffff166fffffffffffffffffffffffffffffffff16815260200190815260200160002060008201518160000160006101000a81548173ffffffffffffffffffffffffffffffffffffffff021916908373ffffffffffffffffffffffffffffffffffffffff1602179055506020820151816001015560408201518160020160006101000a81548160ff02191690831515021790555060608201518160020160016101000a81548160ff02191690831515021790555060808201518160020160026101000a81548173ffffffffffffffffffffffffffffffffffffffff021916908373ffffffffffffffffffffffffffffffffffffffff16021790555060a08201518160020160166101000a81548160ff02191690831515021790555060c08201518160020160176101000a81548160ff02191690831515021790555090505060048590806001815401808255809150506001900390600052602060002090600291828204019190066010029091909190916101000a8154816fffffffffffffffffffffffffffffffff02191690836fffffffffffffffffffffffffffffffff1602179055508273ffffffffffffffffffffffffffffffffffffffff16856fffffffffffffffffffffffffffffffff167f37fa69ed1ccd76dc35df111ab3998251a60d385c1934a31ab90b21b21226198f866040516116d191906128a7565b60405180910390a360019150509392505050565b60606000836fffffffffffffffffffffffffffffffff1667ffffffffffffffff8111156117155761171461234f565b5b6040519080825280602002602001820160405280156117435781602001602082028036833780820191505090505b5090506000805b600480549050816fffffffffffffffffffffffffffffffff161015611a4b57856fffffffffffffffffffffffffffffffff16816fffffffffffffffffffffffffffffffff161015611a4b576000600360006004846fffffffffffffffffffffffffffffffff16815481106117c1576117c061237e565b5b90600052602060002090600291828204019190066010029054906101000a90046fffffffffffffffffffffffffffffffff166fffffffffffffffffffffffffffffffff166fffffffffffffffffffffffffffffffff1681526020019081526020016000206040518060e00160405290816000820160009054906101000a900473ffffffffffffffffffffffffffffffffffffffff1673ffffffffffffffffffffffffffffffffffffffff1673ffffffffffffffffffffffffffffffffffffffff168152602001600182015481526020016002820160009054906101000a900460ff161515151581526020016002820160019054906101000a900460ff161515151581526020016002820160029054906101000a900473ffffffffffffffffffffffffffffffffffffffff1673ffffffffffffffffffffffffffffffffffffffff1673ffffffffffffffffffffffffffffffffffffffff1681526020016002820160169054906101000a900460ff161515151581526020016002820160179054906101000a900460ff16151515158152505090508573ffffffffffffffffffffffffffffffffffffffff16816080015173ffffffffffffffffffffffffffffffffffffffff1603611a37576004826fffffffffffffffffffffffffffffffff16815481106119b1576119b061237e565b5b90600052602060002090600291828204019190066010029054906101000a90046fffffffffffffffffffffffffffffffff168484815181106119f6576119f561237e565b5b60200260200101906fffffffffffffffffffffffffffffffff1690816fffffffffffffffffffffffffffffffff16815250508280611a33906123dc565b9350505b508080611a4390612424565b91505061174a565b50819250505092915050565b60036020528060005260406000206000915090508060000160009054906101000a900473ffffffffffffffffffffffffffffffffffffffff16908060010154908060020160009054906101000a900460ff16908060020160019054906101000a900460ff16908060020160029054906101000a900473ffffffffffffffffffffffffffffffffffffffff16908060020160169054906101000a900460ff16908060020160179054906101000a900460ff16905087565b6040518060e00160405280600073ffffffffffffffffffffffffffffffffffffffff16815260200160008152602001600015158152602001600015158152602001600073ffffffffffffffffffffffffffffffffffffffff1681526020016000151581526020016000151581525090565b600081519050919050565b600082825260208201905092915050565b60005b83811015611bb8578082015181840152602081019050611b9d565b60008484015250505050565b6000601f19601f8301169050919050565b6000611be082611b7e565b611bea8185611b89565b9350611bfa818560208601611b9a565b611c0381611bc4565b840191505092915050565b60006020820190508181036000830152611c288184611bd5565b905092915050565b600073ffffffffffffffffffffffffffffffffffffffff82169050919050565b6000819050919050565b6000611c75611c70611c6b84611c30565b611c50565b611c30565b9050919050565b6000611c8782611c5a565b9050919050565b6000611c9982611c7c565b9050919050565b611ca981611c8e565b82525050565b6000602082019050611cc46000830184611ca0565b92915050565b600080fd5b60006fffffffffffffffffffffffffffffffff82169050919050565b611cf481611ccf565b8114611cff57600080fd5b50565b600081359050611d1181611ceb565b92915050565b6000611d2282611c30565b9050919050565b611d3281611d17565b8114611d3d57600080fd5b50565b600081359050611d4f81611d29565b92915050565b60008060408385031215611d6c57611d6b611cca565b5b6000611d7a85828601611d02565b9250506020611d8b85828601611d40565b9150509250929050565b600081519050919050565b600082825260208201905092915050565b6000819050602082019050919050565b611dca81611ccf565b82525050565b6000611ddc8383611dc1565b60208301905092915050565b6000602082019050919050565b6000611e0082611d95565b611e0a8185611da0565b9350611e1583611db1565b8060005b83811015611e46578151611e2d8882611dd0565b9750611e3883611de8565b925050600181019050611e19565b5085935050505092915050565b60006020820190508181036000830152611e6d8184611df5565b905092915050565b6000819050919050565b611e8881611e75565b8114611e9357600080fd5b50565b600081359050611ea581611e7f565b92915050565b60008060408385031215611ec257611ec1611cca565b5b6000611ed085828601611e96565b9250506020611ee185828601611e96565b9150509250929050565b600081519050919050565b600082825260208201905092915050565b6000819050602082019050919050565b611f2081611e75565b82525050565b6000611f328383611f17565b60208301905092915050565b6000602082019050919050565b6000611f5682611eeb565b611f608185611ef6565b9350611f6b83611f07565b8060005b83811015611f9c578151611f838882611f26565b9750611f8e83611f3e565b925050600181019050611f6f565b5085935050505092915050565b60006020820190508181036000830152611fc38184611f4b565b905092915050565b600060208284031215611fe157611fe0611cca565b5b6000611fef84828501611d02565b91505092915050565b600061200382611c7c565b9050919050565b61201381611ff8565b82525050565b600060208201905061202e600083018461200a565b92915050565b61203d81611d17565b82525050565b60008115159050919050565b61205881612043565b82525050565b60e0820160008201516120746000850182612034565b5060208201516120876020850182611f17565b50604082015161209a604085018261204f565b5060608201516120ad606085018261204f565b5060808201516120c06080850182612034565b5060a08201516120d360a085018261204f565b5060c08201516120e660c085018261204f565b50505050565b600060e082019050612101600083018461205e565b92915050565b61211081612043565b82525050565b600060208201905061212b6000830184612107565b92915050565b61213a81612043565b811461214557600080fd5b50565b60008135905061215781612131565b92915050565b6000806040838503121561217457612173611cca565b5b600061218285828601611d02565b925050602061219385828601612148565b9150509250929050565b6000602082840312156121b3576121b2611cca565b5b60006121c184828501611e96565b91505092915050565b6121d381611ccf565b82525050565b60006020820190506121ee60008301846121ca565b92915050565b6121fd81611d17565b82525050565b600060208201905061221860008301846121f4565b92915050565b60008060006060848603121561223757612236611cca565b5b600061224586828701611d02565b935050602061225686828701611e96565b925050604061226786828701611d40565b9150509250925092565b61227a81611e75565b82525050565b600060e082019050612295600083018a6121f4565b6122a26020830189612271565b6122af6040830188612107565b6122bc6060830187612107565b6122c960808301866121f4565b6122d660a0830185612107565b6122e360c0830184612107565b98975050505050505050565b7f4e487b7100000000000000000000000000000000000000000000000000000000600052602260045260246000fd5b6000600282049050600182168061233657607f821691505b602082108103612349576123486122ef565b5b50919050565b7f4e487b7100000000000000000000000000000000000000000000000000000000600052604160045260246000fd5b7f4e487b7100000000000000000000000000000000000000000000000000000000600052603260045260246000fd5b7f4e487b7100000000000000000000000000000000000000000000000000000000600052601160045260246000fd5b60006123e782611e75565b91507fffffffffffffffffffffffffffffffffffffffffffffffffffffffffffffffff8203612419576124186123ad565b5b600182019050919050565b600061242f82611ccf565b91506fffffffffffffffffffffffffffffffff8203612451576124506123ad565b5b600182019050919050565b600061246782611e75565b915061247283611e75565b925082820390508181111561248a576124896123ad565b5b92915050565b7f4e4f545f50415945445f464f5200000000000000000000000000000000000000600082015250565b60006124c6600d83611b89565b91506124d182612490565b602082019050919050565b600060208201905081810360008301526124f5816124b9565b9050919050565b7f4e4f545f50415945520000000000000000000000000000000000000000000000600082015250565b6000612532600983611b89565b915061253d826124fc565b602082019050919050565b6000602082019050818103600083015261256181612525565b9050919050565b600061257382611e75565b915061257e83611e75565b925082820261258c81611e75565b915082820484148315176125a3576125a26123ad565b5b5092915050565b7f4e487b7100000000000000000000000000000000000000000000000000000000600052601260045260246000fd5b60006125e482611e75565b91506125ef83611e75565b9250826125ff576125fe6125aa565b5b828204905092915050565b600061262561262061261b84611ccf565b611c50565b611e75565b9050919050565b6126358161260a565b82525050565b600060408201905061265060008301856121f4565b61265d602083018461262c565b9392505050565b60008151905061267381612131565b92915050565b60006020828403121561268f5761268e611cca565b5b600061269d84828501612664565b91505092915050565b7f5452414e534645525f4641494c45440000000000000000000000000000000000600082015250565b60006126dc600f83611b89565b91506126e7826126a6565b602082019050919050565b6000602082019050818103600083015261270b816126cf565b9050919050565b6000602082019050612727600083018461262c565b92915050565b7f494e56414c49445f505249434500000000000000000000000000000000000000600082015250565b6000612763600d83611b89565b915061276e8261272d565b602082019050919050565b6000602082019050818103600083015261279281612756565b9050919050565b60006040820190506127ae60008301856121f4565b6127bb60208301846121f4565b9392505050565b6000815190506127d181611e7f565b92915050565b6000602082840312156127ed576127ec611cca565b5b60006127fb848285016127c2565b91505092915050565b7f494e53554646494349454e545f414c4c4f57414e434500000000000000000000600082015250565b600061283a601683611b89565b915061284582612804565b602082019050919050565b600060208201905081810360008301526128698161282d565b9050919050565b600060608201905061288560008301866121f4565b61289260208301856121f4565b61289f6040830184612271565b949350505050565b60006020820190506128bc6000830184612271565b92915050565b6000815190506128d181611d29565b92915050565b6000602082840312156128ed576128ec611cca565b5b60006128fb848285016128c2565b91505092915050565b7f4e4f545f4f574e45440000000000000000000000000000000000000000000000600082015250565b600061293a600983611b89565b915061294582612904565b602082019050919050565b600060208201905081810360008301526129698161292d565b9050919050565b600060608201905061298560008301866121f4565b61299260208301856121f4565b61299f604083018461262c565b94935050505056fea2646970667358221220ec7fb34e75bdd6a0b0d3a9b608f6eb3309f76a1347b183ffcf76db9fa7fbe2a464736f6c634300081c0033",
  "linkReferences": {},
  "deployedLinkReferences": {}
}