{
  "_format": "hh-sol-artifact-1",
  "contractName": "AssetNFT",
  "sourceName": "contracts/AssetNFT.sol",
  "abi": [
    {
      "inputs": [
        {
          "internalType": "address",
          "name": "initialOwner",
          "type": "address"
        }
      ],
      "stateMutability": "nonpayable",
      "type": "constructor"
    },
    {
      "inputs": [
        {
          "internalType": "address",
          "name": "sender",
          "type": "address"
        },
        {
          "internalType": "uint256",
          "name": "tokenId",
          "type": "uint256"
        },
        {
          "internalType": "address",
          "name": "owner",
          "type": "address"
        }
      ],
      "name": "ERC721IncorrectOwner",
      "type": "error"
    },
    {
      "inputs": [
        {
          "internalType": "address",
          "name": "operator",
          "type": "address"
        },
        {
          "internalType": "uint256",
          "name": "tokenId",
          "type": "uint256"
        }
      ],
      "name": "ERC721InsufficientApproval",
      "type": "error"
    },
    {
      "inputs": [
        {
          "internalType": "address",
          "name": "approver",
          "type": "address"
        }
      ],
      "name": "ERC721InvalidApprover",
      "type": "error"
    },
    {
      "inputs": [
        {
          "internalType": "address",
          "name": "operator",
          "type": "address"
        }
      ],
      "name": "ERC721InvalidOperator",
      "type": "error"
    },
    {
      "inputs": [
        {
          "internalType": "address",
          "name": "owner",
          "type": "address"
        }
      ],
      "name": "ERC721InvalidOwner",
      "type": "error"
    },
    {
      "inputs": [
        {
          "internalType": "address",
          "name": "receiver",
          "type": "address"
        }
      ],
      "name": "ERC721InvalidReceiver",
      "type": "error"
    },
    {
      "inputs": [
        {
          "internalType": "address",
          "name": "sender",
          "type": "address"
        }
      ],
      "name": "ERC721InvalidSender",
      "type": "error"
    },
    {
      "inputs": [
        {
          "internalType": "uint256",
          "name": "tokenId",
          "type": "uint256"
        }
      ],
      "name": "ERC721NonexistentToken",
      "type": "error"
    },
    {
      "inputs": [
        {
          "internalType": "address",
          "name": "owner",
          "type": "address"
        }
      ],
      "name": "OwnableInvalidOwner",
      "type": "error"
    },
    {
      "inputs": [
        {
          "internalType": "address",
          "name": "account",
          "type": "address"
        }
      ],
      "name": "OwnableUnauthorizedAccount",
      "type": "error"
    },
    {
      "anonymous": false,
      "inputs": [
        {
          "indexed": true,
          "internalType": "address",
          "name": "owner",
          "type": "address"
        },
        {
          "indexed": true,
          "internalType": "address",
          "name": "approved",
          "type": "address"
        },
        {
          "indexed": true,
          "internalType": "uint256",
          "name": "tokenId",
          "type": "uint256"
        }
      ],
      "name": "Approval",
      "type": "event"
    },
    {
      "anonymous": false,
      "inputs": [
        {
          "indexed": true,
          "internalType": "address",
          "name": "owner",
          "type": "address"
        },
        {
          "indexed": true,
          "internalType": "address",
          "name": "operator",
          "type": "address"
        },
        {
          "indexed": false,
          "internalType": "bool",
          "name": "approved",
          "type": "bool"
        }
      ],
      "name": "ApprovalForAll",
      "type": "event"
    },
    {
      "anonymous": false,
      "inputs": [
        {
          "indexed": false,
          "internalType": "uint256",
          "name": "_fromTokenId",
          "type": "uint256"
        },
        {
          "indexed": false,
          "internalType": "uint256",
          "name": "_toTokenId",
          "type": "uint256"
        }
      ],
      "name": "BatchMetadataUpdate",
      "type": "event"
    },
    {
      "anonymous": false,
      "inputs": [
        {
          "indexed": false,
          "internalType": "uint256",
          "name": "_tokenId",
          "type": "uint256"
        }
      ],
      "name": "MetadataUpdate",
      "type": "event"
    },
    {
      "anonymous": false,
      "inputs": [
        {
          "indexed": true,
          "internalType": "address",
          "name": "previousOwner",
          "type": "address"
        },
        {
          "indexed": true,
          "internalType": "address",
          "name": "newOwner",
          "type": "address"
        }
      ],
      "name": "OwnershipTransferred",
      "type": "event"
    },
    {
      "anonymous": false,
      "inputs": [
        {
          "indexed": true,
          "internalType": "address",
          "name": "from",
          "type": "address"
        },
        {
          "indexed": true,
          "internalType": "address",
          "name": "to",
          "type": "address"
        },
        {
          "indexed": true,
          "internalType": "uint256",
          "name": "tokenId",
          "type": "uint256"
        }
      ],
      "name": "Transfer",
      "type": "event"
    },
    {
      "inputs": [
        {
          "internalType": "address",
          "name": "to",
          "type": "address"
        },
        {
          "internalType": "uint256",
          "name": "tokenId",
          "type": "uint256"
        }
      ],
      "name": "approve",
      "outputs": [],
      "stateMutability": "nonpayable",
      "type": "function"
    },
    {
      "inputs": [
        {
          "internalType": "address",
          "name": "owner",
          "type": "address"
        }
      ],
      "name": "balanceOf",
      "outputs": [
        {
          "internalType": "uint256",
          "name": "",
          "type": "uint256"
        }
      ],
      "stateMutability": "view",
      "type": "function"
    },
    {
      "inputs": [
        {
          "internalType": "uint256",
          "name": "tokenId",
          "type": "uint256"
        }
      ],
      "name": "burn",
      "outputs": [],
      "stateMutability": "nonpayable",
      "type": "function"
    },
    {
      "inputs": [
        {
          "internalType": "address",
          "name": "user",
          "type": "address"
        }
      ],
      "name": "getAllUserNFT",
      "outputs": [
        {
          "internalType": "uint256[]",
          "name": "",
          "type": "uint256[]"
        }
      ],
      "stateMutability": "view",
      "type": "function"
    },
    {
      "inputs": [
        {
          "internalType": "uint256",
          "name": "tokenId",
          "type": "uint256"
        }
      ],
      "name": "getApproved",
      "outputs": [
        {
          "internalType": "address",
          "name": "",
          "type": "address"
        }
      ],
      "stateMutability": "view",
      "type": "function"
    },
    {
      "inputs": [
        {
          "internalType": "address",
          "name": "owner",
          "type": "address"
        },
        {
          "internalType": "address",
          "name": "operator",
          "type": "address"
        }
      ],
      "name": "isApprovedForAll",
      "outputs": [
        {
          "internalType": "bool",
          "name": "",
          "type": "bool"
        }
      ],
      "stateMutability": "view",
      "type": "function"
    },
    {
      "inputs": [],
      "name": "name",
      "outputs": [
        {
          "internalType": "string",
          "name": "",
          "type": "string"
        }
      ],
      "stateMutability": "view",
      "type": "function"
    },
    {
      "inputs": [],
      "name": "owner",
      "outputs": [
        {
          "internalType": "address",
          "name": "",
          "type": "address"
        }
      ],
      "stateMutability": "view",
      "type": "function"
    },
    {
      "inputs": [
        {
          "internalType": "uint256",
          "name": "tokenId",
          "type": "uint256"
        }
      ],
      "name": "ownerOf",
      "outputs": [
        {
          "internalType": "address",
          "name": "",
          "type": "address"
        }
      ],
      "stateMutability": "view",
      "type": "function"
    },
    {
      "inputs": [],
      "name": "renounceOwnership",
      "outputs": [],
      "stateMutability": "nonpayable",
      "type": "function"
    },
    {
      "inputs": [
        {
          "internalType": "address",
          "name": "to",
          "type": "address"
        },
        {
          "internalType": "string",
          "name": "uri",
          "type": "string"
        }
      ],
      "name": "safeMint",
      "outputs": [],
      "stateMutability": "nonpayable",
      "type": "function"
    },
    {
      "inputs": [
        {
          "internalType": "address",
          "name": "from",
          "type": "address"
        },
        {
          "internalType": "address",
          "name": "to",
          "type": "address"
        },
        {
          "internalType": "uint256",
          "name": "tokenId",
          "type": "uint256"
        }
      ],
      "name": "safeTransferFrom",
      "outputs": [],
      "stateMutability": "nonpayable",
      "type": "function"
    },
    {
      "inputs": [
        {
          "internalType": "address",
          "name": "from",
          "type": "address"
        },
        {
          "internalType": "address",
          "name": "to",
          "type": "address"
        },
        {
          "internalType": "uint256",
          "name": "tokenId",
          "type": "uint256"
        },
        {
          "internalType": "bytes",
          "name": "data",
          "type": "bytes"
        }
      ],
      "name": "safeTransferFrom",
      "outputs": [],
      "stateMutability": "nonpayable",
      "type": "function"
    },
    {
      "inputs": [
        {
          "internalType": "address",
          "name": "operator",
          "type": "address"
        },
        {
          "internalType": "bool",
          "name": "approved",
          "type": "bool"
        }
      ],
      "name": "setApprovalForAll",
      "outputs": [],
      "stateMutability": "nonpayable",
      "type": "function"
    },
    {
      "inputs": [
        {
          "internalType": "bytes4",
          "name": "interfaceId",
          "type": "bytes4"
        }
      ],
      "name": "supportsInterface",
      "outputs": [
        {
          "internalType": "bool",
          "name": "",
          "type": "bool"
        }
      ],
      "stateMutability": "view",
      "type": "function"
    },
    {
      "inputs": [],
      "name": "symbol",
      "outputs": [
        {
          "internalType": "string",
          "name": "",
          "type": "string"
        }
      ],
      "stateMutability": "view",
      "type": "function"
    },
    {
      "inputs": [
        {
          "internalType": "uint256",
          "name": "tokenId",
          "type": "uint256"
        }
      ],
      "name": "tokenURI",
      "outputs": [
        {
          "internalType": "string",
          "name": "",
          "type": "string"
        }
      ],
      "stateMutability": "view",
      "type": "function"
    },
    {
      "inputs": [
        {
          "internalType": "address",
          "name": "from",
          "type": "address"
        },
        {
          "internalType": "address",
          "name": "to",
          "type": "address"
        },
        {
          "internalType": "uint256",
          "name": "tokenId",
          "type": "uint256"
        }
      ],
      "name": "transferFrom",
      "outputs": [],
      "stateMutability": "nonpayable",
      "type": "function"
    },
    {
      "inputs": [
        {
          "internalType": "address",
          "name": "newOwner",
          "type": "address"
        }
      ],
      "name": "transferOwnership",
      "outputs": [],
      "stateMutability": "nonpayable",
      "type": "function"
    }
  ],
  "bytecode": "0x6080604052600160085534801561001557600080fd5b50604051612ef8380380612ef883398181016040528101906100379190610277565b806040518060400160405280600881526020017f41737365744e46540000000000000000000000000000000000000000000000008152506040518060400160405280600381526020017f416e74000000000000000000000000000000000000000000000000000000000081525081600090816100b391906104f4565b5080600190816100c391906104f4565b505050600073ffffffffffffffffffffffffffffffffffffffff168173ffffffffffffffffffffffffffffffffffffffff16036101385760006040517f1e4fbdf700000000000000000000000000000000000000000000000000000000815260040161012f91906105d5565b60405180910390fd5b6101478161014e60201b60201c565b50506105f0565b6000600760009054906101000a900473ffffffffffffffffffffffffffffffffffffffff16905081600760006101000a81548173ffffffffffffffffffffffffffffffffffffffff021916908373ffffffffffffffffffffffffffffffffffffffff1602179055508173ffffffffffffffffffffffffffffffffffffffff168173ffffffffffffffffffffffffffffffffffffffff167f8be0079c531659141344cd1fd0a4f28419497f9722a3daafe3b4186f6b6457e060405160405180910390a35050565b600080fd5b600073ffffffffffffffffffffffffffffffffffffffff82169050919050565b600061024482610219565b9050919050565b61025481610239565b811461025f57600080fd5b50565b6000815190506102718161024b565b92915050565b60006020828403121561028d5761028c610214565b5b600061029b84828501610262565b91505092915050565b600081519050919050565b7f4e487b7100000000000000000000000000000000000000000000000000000000600052604160045260246000fd5b7f4e487b7100000000000000000000000000000000000000000000000000000000600052602260045260246000fd5b6000600282049050600182168061032557607f821691505b602082108103610338576103376102de565b5b50919050565b60008190508160005260206000209050919050565b60006020601f8301049050919050565b600082821b905092915050565b6000600883026103a07fffffffffffffffffffffffffffffffffffffffffffffffffffffffffffffffff82610363565b6103aa8683610363565b95508019841693508086168417925050509392505050565b6000819050919050565b6000819050919050565b60006103f16103ec6103e7846103c2565b6103cc565b6103c2565b9050919050565b6000819050919050565b61040b836103d6565b61041f610417826103f8565b848454610370565b825550505050565b600090565b610434610427565b61043f818484610402565b505050565b5b818110156104635761045860008261042c565b600181019050610445565b5050565b601f8211156104a8576104798161033e565b61048284610353565b81016020851015610491578190505b6104a561049d85610353565b830182610444565b50505b505050565b600082821c905092915050565b60006104cb600019846008026104ad565b1980831691505092915050565b60006104e483836104ba565b9150826002028217905092915050565b6104fd826102a4565b67ffffffffffffffff811115610516576105156102af565b5b610520825461030d565b61052b828285610467565b600060209050601f83116001811461055e576000841561054c578287015190505b61055685826104d8565b8655506105be565b601f19841661056c8661033e565b60005b828110156105945784890151825560018201915060208501945060208101905061056f565b868310156105b157848901516105ad601f8916826104ba565b8355505b6001600288020188555050505b505050505050565b6105cf81610239565b82525050565b60006020820190506105ea60008301846105c6565b92915050565b6128f9806105ff6000396000f3fe608060405234801561001057600080fd5b50600436106101215760003560e01c8063715018a6116100ad578063c87b56dd11610071578063c87b56dd146102f2578063d204c45e14610322578063e985e9c51461033e578063f28e34a91461036e578063f2fde38b1461039e57610121565b8063715018a6146102745780638da5cb5b1461027e57806395d89b411461029c578063a22cb465146102ba578063b88d4fde146102d657610121565b806323b872dd116100f457806323b872dd146101c057806342842e0e146101dc57806342966c68146101f85780636352211e1461021457806370a082311461024457610121565b806301ffc9a71461012657806306fdde0314610156578063081812fc14610174578063095ea7b3146101a4575b600080fd5b610140600480360381019061013b9190611c42565b6103ba565b60405161014d9190611c8a565b60405180910390f35b61015e6103cc565b60405161016b9190611d35565b60405180910390f35b61018e60048036038101906101899190611d8d565b61045e565b60405161019b9190611dfb565b60405180910390f35b6101be60048036038101906101b99190611e42565b61047a565b005b6101da60048036038101906101d59190611e82565b610490565b005b6101f660048036038101906101f19190611e82565b610592565b005b610212600480360381019061020d9190611d8d565b6105b2565b005b61022e60048036038101906102299190611d8d565b6105c9565b60405161023b9190611dfb565b60405180910390f35b61025e60048036038101906102599190611ed5565b6105db565b60405161026b9190611f11565b60405180910390f35b61027c610695565b005b6102866106a9565b6040516102939190611dfb565b60405180910390f35b6102a46106d3565b6040516102b19190611d35565b60405180910390f35b6102d460048036038101906102cf9190611f58565b610765565b005b6102f060048036038101906102eb91906120cd565b61077b565b005b61030c60048036038101906103079190611d8d565b6107a0565b6040516103199190611d35565b60405180910390f35b61033c600480360381019061033791906121f1565b6107b2565b005b6103586004803603810190610353919061224d565b6107e6565b6040516103659190611c8a565b60405180910390f35b61038860048036038101906103839190611ed5565b61087a565b604051610395919061234b565b60405180910390f35b6103b860048036038101906103b39190611ed5565b61096b565b005b60006103c5826109f1565b9050919050565b6060600080546103db9061239c565b80601f01602080910402602001604051908101604052809291908181526020018280546104079061239c565b80156104545780601f1061042957610100808354040283529160200191610454565b820191906000526020600020905b81548152906001019060200180831161043757829003601f168201915b5050505050905090565b600061046982610a52565b5061047382610ada565b9050919050565b61048c8282610487610b17565b610b1f565b5050565b600073ffffffffffffffffffffffffffffffffffffffff168273ffffffffffffffffffffffffffffffffffffffff16036105025760006040517f64a0ae920000000000000000000000000000000000000000000000000000000081526004016104f99190611dfb565b60405180910390fd5b60006105168383610511610b17565b610b31565b90508373ffffffffffffffffffffffffffffffffffffffff168173ffffffffffffffffffffffffffffffffffffffff161461058c578382826040517f64283d7b000000000000000000000000000000000000000000000000000000008152600401610583939291906123cd565b60405180910390fd5b50505050565b6105ad8383836040518060200160405280600081525061077b565b505050565b6105c56000826105c0610b17565b610b31565b5050565b60006105d482610a52565b9050919050565b60008073ffffffffffffffffffffffffffffffffffffffff168273ffffffffffffffffffffffffffffffffffffffff160361064e5760006040517f89c62b640000000000000000000000000000000000000000000000000000000081526004016106459190611dfb565b60405180910390fd5b600360008373ffffffffffffffffffffffffffffffffffffffff1673ffffffffffffffffffffffffffffffffffffffff168152602001908152602001600020549050919050565b61069d610d4b565b6106a76000610dd2565b565b6000600760009054906101000a900473ffffffffffffffffffffffffffffffffffffffff16905090565b6060600180546106e29061239c565b80601f016020809104026020016040519081016040528092919081815260200182805461070e9061239c565b801561075b5780601f106107305761010080835404028352916020019161075b565b820191906000526020600020905b81548152906001019060200180831161073e57829003601f168201915b5050505050905090565b610777610770610b17565b8383610e98565b5050565b610786848484610490565b61079a610791610b17565b85858585611007565b50505050565b60606107ab826111b8565b9050919050565b6000600860008154809291906107c790612433565b9190505590506107d783826112cb565b6107e181836112e9565b505050565b6000600560008473ffffffffffffffffffffffffffffffffffffffff1673ffffffffffffffffffffffffffffffffffffffff16815260200190815260200160002060008373ffffffffffffffffffffffffffffffffffffffff1673ffffffffffffffffffffffffffffffffffffffff16815260200190815260200160002060009054906101000a900460ff16905092915050565b60606000610887836105db565b905060008167ffffffffffffffff8111156108a5576108a4611fa2565b5b6040519080825280602002602001820160405280156108d35781602001602082028036833780820191505090505b509050600080600190505b60085481101561095f578573ffffffffffffffffffffffffffffffffffffffff16610908826105c9565b73ffffffffffffffffffffffffffffffffffffffff160361095257808383815181106109375761093661247b565b5b602002602001018181525050818061094e90612433565b9250505b80806001019150506108de565b50819350505050919050565b610973610d4b565b600073ffffffffffffffffffffffffffffffffffffffff168173ffffffffffffffffffffffffffffffffffffffff16036109e55760006040517f1e4fbdf70000000000000000000000000000000000000000000000000000000081526004016109dc9190611dfb565b60405180910390fd5b6109ee81610dd2565b50565b6000634906490660e01b7bffffffffffffffffffffffffffffffffffffffffffffffffffffffff1916827bffffffffffffffffffffffffffffffffffffffffffffffffffffffff19161480610a4b5750610a4a82611345565b5b9050919050565b600080610a5e83611427565b9050600073ffffffffffffffffffffffffffffffffffffffff168173ffffffffffffffffffffffffffffffffffffffff1603610ad157826040517f7e273289000000000000000000000000000000000000000000000000000000008152600401610ac89190611f11565b60405180910390fd5b80915050919050565b60006004600083815260200190815260200160002060009054906101000a900473ffffffffffffffffffffffffffffffffffffffff169050919050565b600033905090565b610b2c8383836001611464565b505050565b600080610b3d84611427565b9050600073ffffffffffffffffffffffffffffffffffffffff168373ffffffffffffffffffffffffffffffffffffffff1614610b7f57610b7e818486611629565b5b600073ffffffffffffffffffffffffffffffffffffffff168173ffffffffffffffffffffffffffffffffffffffff1614610c1057610bc1600085600080611464565b6001600360008373ffffffffffffffffffffffffffffffffffffffff1673ffffffffffffffffffffffffffffffffffffffff168152602001908152602001600020600082825403925050819055505b600073ffffffffffffffffffffffffffffffffffffffff168573ffffffffffffffffffffffffffffffffffffffff1614610c93576001600360008773ffffffffffffffffffffffffffffffffffffffff1673ffffffffffffffffffffffffffffffffffffffff168152602001908152602001600020600082825401925050819055505b846002600086815260200190815260200160002060006101000a81548173ffffffffffffffffffffffffffffffffffffffff021916908373ffffffffffffffffffffffffffffffffffffffff160217905550838573ffffffffffffffffffffffffffffffffffffffff168273ffffffffffffffffffffffffffffffffffffffff167fddf252ad1be2c89b69c2b068fc378daa952ba7f163c4a11628f55a4df523b3ef60405160405180910390a4809150509392505050565b610d53610b17565b73ffffffffffffffffffffffffffffffffffffffff16610d716106a9565b73ffffffffffffffffffffffffffffffffffffffff1614610dd057610d94610b17565b6040517f118cdaa7000000000000000000000000000000000000000000000000000000008152600401610dc79190611dfb565b60405180910390fd5b565b6000600760009054906101000a900473ffffffffffffffffffffffffffffffffffffffff16905081600760006101000a81548173ffffffffffffffffffffffffffffffffffffffff021916908373ffffffffffffffffffffffffffffffffffffffff1602179055508173ffffffffffffffffffffffffffffffffffffffff168173ffffffffffffffffffffffffffffffffffffffff167f8be0079c531659141344cd1fd0a4f28419497f9722a3daafe3b4186f6b6457e060405160405180910390a35050565b600073ffffffffffffffffffffffffffffffffffffffff168273ffffffffffffffffffffffffffffffffffffffff1603610f0957816040517f5b08ba18000000000000000000000000000000000000000000000000000000008152600401610f009190611dfb565b60405180910390fd5b80600560008573ffffffffffffffffffffffffffffffffffffffff1673ffffffffffffffffffffffffffffffffffffffff16815260200190815260200160002060008473ffffffffffffffffffffffffffffffffffffffff1673ffffffffffffffffffffffffffffffffffffffff16815260200190815260200160002060006101000a81548160ff0219169083151502179055508173ffffffffffffffffffffffffffffffffffffffff168373ffffffffffffffffffffffffffffffffffffffff167f17307eab39ab6107e8899845ad3d59bd9653f200f220920489ca2b5937696c3183604051610ffa9190611c8a565b60405180910390a3505050565b60008373ffffffffffffffffffffffffffffffffffffffff163b11156111b1578273ffffffffffffffffffffffffffffffffffffffff1663150b7a02868685856040518563ffffffff1660e01b815260040161106694939291906124ff565b6020604051808303816000875af19250505080156110a257506040513d601f19601f8201168201806040525081019061109f9190612560565b60015b611126573d80600081146110d2576040519150601f19603f3d011682016040523d82523d6000602084013e6110d7565b606091505b50600081510361111e57836040517f64a0ae920000000000000000000000000000000000000000000000000000000081526004016111159190611dfb565b60405180910390fd5b805181602001fd5b63150b7a0260e01b7bffffffffffffffffffffffffffffffffffffffffffffffffffffffff1916817bffffffffffffffffffffffffffffffffffffffffffffffffffffffff1916146111af57836040517f64a0ae920000000000000000000000000000000000000000000000000000000081526004016111a69190611dfb565b60405180910390fd5b505b5050505050565b60606111c382610a52565b5060006006600084815260200190815260200160002080546111e49061239c565b80601f01602080910402602001604051908101604052809291908181526020018280546112109061239c565b801561125d5780601f106112325761010080835404028352916020019161125d565b820191906000526020600020905b81548152906001019060200180831161124057829003601f168201915b50505050509050600061126e6116ed565b905060008151036112835781925050506112c6565b6000825111156112b85780826040516020016112a09291906125c9565b604051602081830303815290604052925050506112c6565b6112c184611704565b925050505b919050565b6112e582826040518060200160405280600081525061176d565b5050565b806006600084815260200190815260200160002090816113099190612799565b507ff8e1a15aba9398e019f0b49df1a4fde98ee17ae345cb5f6b5e2c27f5033e8ce7826040516113399190611f11565b60405180910390a15050565b60007f80ac58cd000000000000000000000000000000000000000000000000000000007bffffffffffffffffffffffffffffffffffffffffffffffffffffffff1916827bffffffffffffffffffffffffffffffffffffffffffffffffffffffff1916148061141057507f5b5e139f000000000000000000000000000000000000000000000000000000007bffffffffffffffffffffffffffffffffffffffffffffffffffffffff1916827bffffffffffffffffffffffffffffffffffffffffffffffffffffffff1916145b80611420575061141f82611791565b5b9050919050565b60006002600083815260200190815260200160002060009054906101000a900473ffffffffffffffffffffffffffffffffffffffff169050919050565b808061149d5750600073ffffffffffffffffffffffffffffffffffffffff168273ffffffffffffffffffffffffffffffffffffffff1614155b156115d15760006114ad84610a52565b9050600073ffffffffffffffffffffffffffffffffffffffff168373ffffffffffffffffffffffffffffffffffffffff161415801561151857508273ffffffffffffffffffffffffffffffffffffffff168173ffffffffffffffffffffffffffffffffffffffff1614155b801561152b575061152981846107e6565b155b1561156d57826040517fa9fbf51f0000000000000000000000000000000000000000000000000000000081526004016115649190611dfb565b60405180910390fd5b81156115cf57838573ffffffffffffffffffffffffffffffffffffffff168273ffffffffffffffffffffffffffffffffffffffff167f8c5be1e5ebec7d5bd14f71427d1e84f3dd0314c0f7b2291e5b200ac8c7c3b92560405160405180910390a45b505b836004600085815260200190815260200160002060006101000a81548173ffffffffffffffffffffffffffffffffffffffff021916908373ffffffffffffffffffffffffffffffffffffffff16021790555050505050565b6116348383836117fb565b6116e857600073ffffffffffffffffffffffffffffffffffffffff168373ffffffffffffffffffffffffffffffffffffffff16036116a957806040517f7e2732890000000000000000000000000000000000000000000000000000000081526004016116a09190611f11565b60405180910390fd5b81816040517f177e802f0000000000000000000000000000000000000000000000000000000081526004016116df92919061286b565b60405180910390fd5b505050565b606060405180602001604052806000815250905090565b606061170f82610a52565b50600061171a6116ed565b9050600081511161173a5760405180602001604052806000815250611765565b80611744846118bc565b6040516020016117559291906125c9565b6040516020818303038152906040525b915050919050565b611777838361198a565b61178c611782610b17565b6000858585611007565b505050565b60007f01ffc9a7000000000000000000000000000000000000000000000000000000007bffffffffffffffffffffffffffffffffffffffffffffffffffffffff1916827bffffffffffffffffffffffffffffffffffffffffffffffffffffffff1916149050919050565b60008073ffffffffffffffffffffffffffffffffffffffff168373ffffffffffffffffffffffffffffffffffffffff16141580156118b357508273ffffffffffffffffffffffffffffffffffffffff168473ffffffffffffffffffffffffffffffffffffffff161480611874575061187384846107e6565b5b806118b257508273ffffffffffffffffffffffffffffffffffffffff1661189a83610ada565b73ffffffffffffffffffffffffffffffffffffffff16145b5b90509392505050565b6060600060016118cb84611a83565b01905060008167ffffffffffffffff8111156118ea576118e9611fa2565b5b6040519080825280601f01601f19166020018201604052801561191c5781602001600182028036833780820191505090505b509050600082602001820190505b60011561197f578080600190039150507f3031323334353637383961626364656600000000000000000000000000000000600a86061a8153600a858161197357611972612894565b5b0494506000850361192a575b819350505050919050565b600073ffffffffffffffffffffffffffffffffffffffff168273ffffffffffffffffffffffffffffffffffffffff16036119fc5760006040517f64a0ae920000000000000000000000000000000000000000000000000000000081526004016119f39190611dfb565b60405180910390fd5b6000611a0a83836000610b31565b9050600073ffffffffffffffffffffffffffffffffffffffff168173ffffffffffffffffffffffffffffffffffffffff1614611a7e5760006040517f73c6ac6e000000000000000000000000000000000000000000000000000000008152600401611a759190611dfb565b60405180910390fd5b505050565b600080600090507a184f03e93ff9f4daa797ed6e38ed64bf6a1f0100000000000000008310611ae1577a184f03e93ff9f4daa797ed6e38ed64bf6a1f0100000000000000008381611ad757611ad6612894565b5b0492506040810190505b6d04ee2d6d415b85acef81000000008310611b1e576d04ee2d6d415b85acef81000000008381611b1457611b13612894565b5b0492506020810190505b662386f26fc100008310611b4d57662386f26fc100008381611b4357611b42612894565b5b0492506010810190505b6305f5e1008310611b76576305f5e1008381611b6c57611b6b612894565b5b0492506008810190505b6127108310611b9b576127108381611b9157611b90612894565b5b0492506004810190505b60648310611bbe5760648381611bb457611bb3612894565b5b0492506002810190505b600a8310611bcd576001810190505b80915050919050565b6000604051905090565b600080fd5b600080fd5b60007fffffffff0000000000000000000000000000000000000000000000000000000082169050919050565b611c1f81611bea565b8114611c2a57600080fd5b50565b600081359050611c3c81611c16565b92915050565b600060208284031215611c5857611c57611be0565b5b6000611c6684828501611c2d565b91505092915050565b60008115159050919050565b611c8481611c6f565b82525050565b6000602082019050611c9f6000830184611c7b565b92915050565b600081519050919050565b600082825260208201905092915050565b60005b83811015611cdf578082015181840152602081019050611cc4565b60008484015250505050565b6000601f19601f8301169050919050565b6000611d0782611ca5565b611d118185611cb0565b9350611d21818560208601611cc1565b611d2a81611ceb565b840191505092915050565b60006020820190508181036000830152611d4f8184611cfc565b905092915050565b6000819050919050565b611d6a81611d57565b8114611d7557600080fd5b50565b600081359050611d8781611d61565b92915050565b600060208284031215611da357611da2611be0565b5b6000611db184828501611d78565b91505092915050565b600073ffffffffffffffffffffffffffffffffffffffff82169050919050565b6000611de582611dba565b9050919050565b611df581611dda565b82525050565b6000602082019050611e106000830184611dec565b92915050565b611e1f81611dda565b8114611e2a57600080fd5b50565b600081359050611e3c81611e16565b92915050565b60008060408385031215611e5957611e58611be0565b5b6000611e6785828601611e2d565b9250506020611e7885828601611d78565b9150509250929050565b600080600060608486031215611e9b57611e9a611be0565b5b6000611ea986828701611e2d565b9350506020611eba86828701611e2d565b9250506040611ecb86828701611d78565b9150509250925092565b600060208284031215611eeb57611eea611be0565b5b6000611ef984828501611e2d565b91505092915050565b611f0b81611d57565b82525050565b6000602082019050611f266000830184611f02565b92915050565b611f3581611c6f565b8114611f4057600080fd5b50565b600081359050611f5281611f2c565b92915050565b60008060408385031215611f6f57611f6e611be0565b5b6000611f7d85828601611e2d565b9250506020611f8e85828601611f43565b9150509250929050565b600080fd5b600080fd5b7f4e487b7100000000000000000000000000000000000000000000000000000000600052604160045260246000fd5b611fda82611ceb565b810181811067ffffffffffffffff82111715611ff957611ff8611fa2565b5b80604052505050565b600061200c611bd6565b90506120188282611fd1565b919050565b600067ffffffffffffffff82111561203857612037611fa2565b5b61204182611ceb565b9050602081019050919050565b82818337600083830152505050565b600061207061206b8461201d565b612002565b90508281526020810184848401111561208c5761208b611f9d565b5b61209784828561204e565b509392505050565b600082601f8301126120b4576120b3611f98565b5b81356120c484826020860161205d565b91505092915050565b600080600080608085870312156120e7576120e6611be0565b5b60006120f587828801611e2d565b945050602061210687828801611e2d565b935050604061211787828801611d78565b925050606085013567ffffffffffffffff81111561213857612137611be5565b5b6121448782880161209f565b91505092959194509250565b600067ffffffffffffffff82111561216b5761216a611fa2565b5b61217482611ceb565b9050602081019050919050565b600061219461218f84612150565b612002565b9050828152602081018484840111156121b0576121af611f9d565b5b6121bb84828561204e565b509392505050565b600082601f8301126121d8576121d7611f98565b5b81356121e8848260208601612181565b91505092915050565b6000806040838503121561220857612207611be0565b5b600061221685828601611e2d565b925050602083013567ffffffffffffffff81111561223757612236611be5565b5b612243858286016121c3565b9150509250929050565b6000806040838503121561226457612263611be0565b5b600061227285828601611e2d565b925050602061228385828601611e2d565b9150509250929050565b600081519050919050565b600082825260208201905092915050565b6000819050602082019050919050565b6122c281611d57565b82525050565b60006122d483836122b9565b60208301905092915050565b6000602082019050919050565b60006122f88261228d565b6123028185612298565b935061230d836122a9565b8060005b8381101561233e57815161232588826122c8565b9750612330836122e0565b925050600181019050612311565b5085935050505092915050565b6000602082019050818103600083015261236581846122ed565b905092915050565b7f4e487b7100000000000000000000000000000000000000000000000000000000600052602260045260246000fd5b600060028204905060018216806123b457607f821691505b6020821081036123c7576123c661236d565b5b50919050565b60006060820190506123e26000830186611dec565b6123ef6020830185611f02565b6123fc6040830184611dec565b949350505050565b7f4e487b7100000000000000000000000000000000000000000000000000000000600052601160045260246000fd5b600061243e82611d57565b91507fffffffffffffffffffffffffffffffffffffffffffffffffffffffffffffffff82036124705761246f612404565b5b600182019050919050565b7f4e487b7100000000000000000000000000000000000000000000000000000000600052603260045260246000fd5b600081519050919050565b600082825260208201905092915050565b60006124d1826124aa565b6124db81856124b5565b93506124eb818560208601611cc1565b6124f481611ceb565b840191505092915050565b60006080820190506125146000830187611dec565b6125216020830186611dec565b61252e6040830185611f02565b818103606083015261254081846124c6565b905095945050505050565b60008151905061255a81611c16565b92915050565b60006020828403121561257657612575611be0565b5b60006125848482850161254b565b91505092915050565b600081905092915050565b60006125a382611ca5565b6125ad818561258d565b93506125bd818560208601611cc1565b80840191505092915050565b60006125d58285612598565b91506125e18284612598565b91508190509392505050565b60008190508160005260206000209050919050565b60006020601f8301049050919050565b600082821b905092915050565b60006008830261264f7fffffffffffffffffffffffffffffffffffffffffffffffffffffffffffffffff82612612565b6126598683612612565b95508019841693508086168417925050509392505050565b6000819050919050565b600061269661269161268c84611d57565b612671565b611d57565b9050919050565b6000819050919050565b6126b08361267b565b6126c46126bc8261269d565b84845461261f565b825550505050565b600090565b6126d96126cc565b6126e48184846126a7565b505050565b5b81811015612708576126fd6000826126d1565b6001810190506126ea565b5050565b601f82111561274d5761271e816125ed565b61272784612602565b81016020851015612736578190505b61274a61274285612602565b8301826126e9565b50505b505050565b600082821c905092915050565b600061277060001984600802612752565b1980831691505092915050565b6000612789838361275f565b9150826002028217905092915050565b6127a282611ca5565b67ffffffffffffffff8111156127bb576127ba611fa2565b5b6127c5825461239c565b6127d082828561270c565b600060209050601f83116001811461280357600084156127f1578287015190505b6127fb858261277d565b865550612863565b601f198416612811866125ed565b60005b8281101561283957848901518255600182019150602085019450602081019050612814565b868310156128565784890151612852601f89168261275f565b8355505b6001600288020188555050505b505050505050565b60006040820190506128806000830185611dec565b61288d6020830184611f02565b9392505050565b7f4e487b7100000000000000000000000000000000000000000000000000000000600052601260045260246000fdfea264697066735822122079c34524167099af9c06eedcbb2c29ae6d3161460c9a497f6085c55edd1f787b64736f6c634300081c0033",
  "linkReferences": {},
  "deployedLinkReferences": {}
}